:060000000A128A11142A05
:10000800A000030EA1000B183A220B194022210E62
:080018008300A00E200E090078
:100400008A018A140F3982073F3403345E344F3433
:1004100063346D347D3407347F3467347734793412
:100420003C345B347C3474340317831688018901AF
:100430000313831607308100A8308B00033095002A
:10044000033096008501870188010330860003137D
:100450008312D83081008501860187018801050853
:10046000A80077227F22AB01AA01A9015C226522A4
:100470006E222F2A061C850A861C85030B10080095
:100480000B11D830810088012719562AA718502A45
:1004900027184A2A2408870008152710A7140800DF
:1004A000250887008814A71027150800260887004C
:1004B00008142711271408006430A802AB0A031897
:1004C0005C2AAB036430A80708000A30A802AA0A15
:1004D0000318652AAA030A30A80708000130A802F9
:1004E000A90A03186E2AA9030130A80708000F30D3
:1004F0002805A200F0302805A300A30E0800290853
:100500000022A4002A080022A5002B080022A60031
:020510000800E1
:04400E00D420FF3F7C
:00000001FF
